{
  "contractName": "Todo",
  "abi": [
    {
      "inputs": [
        {
          "internalType": "address",
          "name": "",
          "type": "address"
        },
        {
          "internalType": "uint256",
          "name": "",
          "type": "uint256"
        }
      ],
      "name": "Todolist",
      "outputs": [
        {
          "internalType": "string",
          "name": "",
          "type": "string"
        }
      ],
      "stateMutability": "view",
      "type": "function",
      "constant": true
    },
    {
      "inputs": [
        {
          "internalType": "string",
          "name": "_todo",
          "type": "string"
        }
      ],
      "name": "addTodo",
      "outputs": [],
      "stateMutability": "nonpayable",
      "type": "function"
    },
    {
      "inputs": [],
      "name": "getTodo",
      "outputs": [
        {
          "internalType": "string[]",
          "name": "",
          "type": "string[]"
        }
      ],
      "stateMutability": "view",
      "type": "function",
      "constant": true
    },
    {
      "inputs": [
        {
          "internalType": "uint256",
          "name": "_index",
          "type": "uint256"
        }
      ],
      "name": "deleteTodo",
      "outputs": [],
      "stateMutability": "nonpayable",
      "type": "function"
    }
  ],
  "bytecode": "0x6080604052600060015534801561001557600080fd5b5061100b806100256000396000f3fe608060405234801561001057600080fd5b506004361061004c5760003560e01c806354c947f4146100515780636e3c6738146100815780637fa1680a1461009d57806395ffebf5146100bb575b600080fd5b61006b600480360381019061006691906109ef565b6100d7565b6040516100789190610ac8565b60405180910390f35b61009b60048036038101906100969190610aea565b610190565b005b6100a5610346565b6040516100b29190610c23565b60405180910390f35b6100d560048036038101906100d09190610d7a565b61045b565b005b600060205281600052604060002081815481106100f357600080fd5b9060005260206000200160009150915050805461010f90610df2565b80601f016020809104026020016040519081016040528092919081815260200182805461013b90610df2565b80156101885780601f1061015d57610100808354040283529160200191610188565b820191906000526020600020905b81548152906001019060200180831161016b57829003601f168201915b505050505081565b60008190505b60016000803373ffffffffffffffffffffffffffffffffffffffff1673ffffffffffffffffffffffffffffffffffffffff168152602001908152602001600020805490506101e49190610e52565b8110156102d6576000803373ffffffffffffffffffffffffffffffffffffffff1673ffffffffffffffffffffffffffffffffffffffff1681526020019081526020016000206001826102369190610e86565b8154811061024757610246610edc565b5b906000526020600020016000803373ffffffffffffffffffffffffffffffffffffffff1673ffffffffffffffffffffffffffffffffffffffff16815260200190815260200160002082815481106102a1576102a0610edc565b5b906000526020600020019080546102b790610df2565b6102c29291906107d7565b5080806102ce90610f0b565b915050610196565b506000803373ffffffffffffffffffffffffffffffffffffffff1673ffffffffffffffffffffffffffffffffffffffff16815260200190815260200160002080548061032557610324610f53565b5b6001900381819060005260206000200160006103419190610864565b905550565b60606000803373ffffffffffffffffffffffffffffffffffffffff1673ffffffffffffffffffffffffffffffffffffffff168152602001908152602001600020805480602002602001604051908101604052809291908181526020016000905b828210156104525783829060005260206000200180546103c590610df2565b80601f01602080910402602001604051908101604052809291908181526020018280546103f190610df2565b801561043e5780601f106104135761010080835404028352916020019161043e565b820191906000526020600020905b81548152906001019060200180831161042157829003601f168201915b5050505050815260200190600101906103a6565b50505050905090565b60008060003373ffffffffffffffffffffffffffffffffffffffff1673ffffffffffffffffffffffffffffffffffffffff1681526020019081526020016000208054905003610521576000803373ffffffffffffffffffffffffffffffffffffffff1673ffffffffffffffffffffffffffffffffffffffff1681526020019081526020016000208190806001815401808255809150506001900390600052602060002001600090919091909150908051906020019061051b9291906108a4565b506107d4565b60005b6000803373ffffffffffffffffffffffffffffffffffffffff1673ffffffffffffffffffffffffffffffffffffffff168152602001908152602001600020805490508110156107d25760008060003373ffffffffffffffffffffffffffffffffffffffff1673ffffffffffffffffffffffffffffffffffffffff16815260200190815260200160002082815481106105bf576105be610edc565b5b9060005260206000200180546105d490610df2565b80601f016020809104026020016040519081016040528092919081815260200182805461060090610df2565b801561064d5780601f106106225761010080835404028352916020019161064d565b820191906000526020600020905b81548152906001019060200180831161063057829003601f168201915b50505050509050826040516020016106659190610fbe565b604051602081830303815290604052805190602001208160405160200161068c9190610fbe565b60405160208183030381529060405280519060200120036106f0576000803373ffffffffffffffffffffffffffffffffffffffff1673ffffffffffffffffffffffffffffffffffffffff1681526020019081526020016000208054905091506107be565b60016000803373ffffffffffffffffffffffffffffffffffffffff1673ffffffffffffffffffffffffffffffffffffffff1681526020019081526020016000208054905061073e9190610e52565b82036107bd576000803373ffffffffffffffffffffffffffffffffffffffff1673ffffffffffffffffffffffffffffffffffffffff168152602001908152602001600020839080600181540180825580915050600190039060005260206000200160009091909190915090805190602001906107bb9291906108a4565b505b5b5080806107ca90610f0b565b915050610524565b505b50565b8280546107e390610df2565b90600052602060002090601f0160209004810192826108055760008555610853565b82601f106108165780548555610853565b8280016001018555821561085357600052602060002091601f016020900482015b82811115610852578254825591600101919060010190610837565b5b509050610860919061092a565b5090565b50805461087090610df2565b6000825580601f1061088257506108a1565b601f0160209004906000526020600020908101906108a0919061092a565b5b50565b8280546108b090610df2565b90600052602060002090601f0160209004810192826108d25760008555610919565b82601f106108eb57805160ff1916838001178555610919565b82800160010185558215610919579182015b828111156109185782518255916020019190600101906108fd565b5b509050610926919061092a565b5090565b5b8082111561094357600081600090555060010161092b565b5090565b6000604051905090565b600080fd5b600080fd5b600073ffffffffffffffffffffffffffffffffffffffff82169050919050565b60006109868261095b565b9050919050565b6109968161097b565b81146109a157600080fd5b50565b6000813590506109b38161098d565b92915050565b6000819050919050565b6109cc816109b9565b81146109d757600080fd5b50565b6000813590506109e9816109c3565b92915050565b60008060408385031215610a0657610a05610951565b5b6000610a14858286016109a4565b9250506020610a25858286016109da565b9150509250929050565b600081519050919050565b600082825260208201905092915050565b60005b83811015610a69578082015181840152602081019050610a4e565b83811115610a78576000848401525b50505050565b6000601f19601f8301169050919050565b6000610a9a82610a2f565b610aa48185610a3a565b9350610ab4818560208601610a4b565b610abd81610a7e565b840191505092915050565b60006020820190508181036000830152610ae28184610a8f565b905092915050565b600060208284031215610b0057610aff610951565b5b6000610b0e848285016109da565b91505092915050565b600081519050919050565b600082825260208201905092915050565b6000819050602082019050919050565b600082825260208201905092915050565b6000610b5f82610a2f565b610b698185610b43565b9350610b79818560208601610a4b565b610b8281610a7e565b840191505092915050565b6000610b998383610b54565b905092915050565b6000602082019050919050565b6000610bb982610b17565b610bc38185610b22565b935083602082028501610bd585610b33565b8060005b85811015610c115784840389528151610bf28582610b8d565b9450610bfd83610ba1565b925060208a01995050600181019050610bd9565b50829750879550505050505092915050565b60006020820190508181036000830152610c3d8184610bae565b905092915050565b600080fd5b600080fd5b7f4e487b7100000000000000000000000000000000000000000000000000000000600052604160045260246000fd5b610c8782610a7e565b810181811067ffffffffffffffff82111715610ca657610ca5610c4f565b5b80604052505050565b6000610cb9610947565b9050610cc58282610c7e565b919050565b600067ffffffffffffffff821115610ce557610ce4610c4f565b5b610cee82610a7e565b9050602081019050919050565b82818337600083830152505050565b6000610d1d610d1884610cca565b610caf565b905082815260208101848484011115610d3957610d38610c4a565b5b610d44848285610cfb565b509392505050565b600082601f830112610d6157610d60610c45565b5b8135610d71848260208601610d0a565b91505092915050565b600060208284031215610d9057610d8f610951565b5b600082013567ffffffffffffffff811115610dae57610dad610956565b5b610dba84828501610d4c565b91505092915050565b7f4e487b7100000000000000000000000000000000000000000000000000000000600052602260045260246000fd5b60006002820490506001821680610e0a57607f821691505b602082108103610e1d57610e1c610dc3565b5b50919050565b7f4e487b7100000000000000000000000000000000000000000000000000000000600052601160045260246000fd5b6000610e5d826109b9565b9150610e68836109b9565b925082821015610e7b57610e7a610e23565b5b828203905092915050565b6000610e91826109b9565b9150610e9c836109b9565b9250827fffffffffffffffffffffffffffffffffffffffffffffffffffffffffffffffff03821115610ed157610ed0610e23565b5b828201905092915050565b7f4e487b7100000000000000000000000000000000000000000000000000000000600052603260045260246000fd5b6000610f16826109b9565b91507fffffffffffffffffffffffffffffffffffffffffffffffffffffffffffffffff8203610f4857610f47610e23565b5b600182019050919050565b7f4e487b7100000000000000000000000000000000000000000000000000000000600052603160045260246000fd5b600081905092915050565b6000610f9882610a2f565b610fa28185610f82565b9350610fb2818560208601610a4b565b80840191505092915050565b6000610fca8284610f8d565b91508190509291505056fea2646970667358221220d5ffd4ad3e4b44f7ffec45156672258acab0cb6e0f1fd08f549c726cfdbe1c8864736f6c634300080e0033",
  "immutableReferences": {},
  "source": "// SPDX-License-Identifier: MIT\r\npragma solidity >=0.4.22 <0.9.0;\r\n\r\ncontract Todo{\r\n    //string[]public Todos;\r\n\r\n  \r\n     mapping(address=>string[])public Todolist;\r\n     uint count=0;\r\n   \r\n     function addTodo(string memory _todo)public {\r\n        // bytes memory str_bytes1 = bytes(_todo);\r\n        // string memory str = new string(str_bytes1.length);\r\n        // str=_todo;\r\n\r\n        // Todos memory todos;\r\n        // todos.id=count;\r\n        // todos.work=_todo;\r\n       \r\n        if(Todolist[msg.sender].length==0){\r\n            Todolist[msg.sender].push(_todo);\r\n        }\r\n        else{\r\n        for(uint i=0;i<Todolist[msg.sender].length;i++){\r\n            string memory str=Todolist[msg.sender][i];\r\n\r\n            \r\n            if(keccak256(abi.encodePacked(str)) == keccak256(abi.encodePacked(_todo))){\r\n               i=Todolist[msg.sender].length;\r\n               // revert(\"same no\");\r\n               \r\n              \r\n                }\r\n                 else{\r\n                     if(i==Todolist[msg.sender].length-1){\r\n                 Todolist[msg.sender].push(_todo);\r\n                     }\r\n             \r\n            }\r\n        }\r\n\r\n        }\r\n        \r\n\r\n     }\r\n    \r\n    function getTodo()public view returns( string[] memory){\r\n        return Todolist[msg.sender];\r\n    }\r\n\r\n    function deleteTodo(uint _index)public {\r\n       // ;\r\n       for(uint i=_index;i<Todolist[msg.sender].length-1;i++){\r\n            Todolist[msg.sender][i]= Todolist[msg.sender][i+1];\r\n       }\r\n      Todolist[msg.sender].pop();\r\n    }\r\n}",
  "sourcePath": "D:\\success project\\Todo\\truffle\\contracts\\Todo.sol",
  "compiler": {
    "name": "solc",
    "version": "0.8.14+commit.80d49f37.Emscripten.clang"
  },
  "schemaVersion": "3.4.9",
  "updatedAt": "2022-08-27T05:06:31.121Z",
  "networkType": "ethereum",
  "devdoc": {
    "kind": "dev",
    "methods": {},
    "version": 1
  },
  "userdoc": {
    "kind": "user",
    "methods": {},
    "version": 1
  }
}